:020000040800F2
:1000000078B4002029030008795600080946000842
:100010007556000835110008398C000800000000F2
:10002000000000000000000000000000690200085D
:100030002B1B000800000000C502000873830008A5
:100040004303000843030008430300084303000878
:1000500043030008430300082D1B00084303000866
:1000600043030008371B0008411B00084303000836
:100070004303000843030008430300084303000848
:100080004303000843030008430300084303000838
:100090003911000843030008430300084B1B000804
:1000A0004303000843030008430300084303000818
:1000B0004303000843030008430300084303000808
:1000C00043030008430300084303000843030008F8
:1000D000430300084303000843030008158B00088E
:1000E00043030008430300084303000843030008D8
:1000F00043030008430300084303000843030008C8
:1001000043030008430300084303000843030008B7
:1001100043030008430300084303000843030008A7
:100120004303000843030008F911000843030008D3
:100130004303000843030008430300084303000887
:100140004911000843030008430300084303000863
:100150004303000843030008430300084303000867
:100160004303000843030008430300084303000857
:100170004303000843030008430300080000000095
:10018000430300084303000800F002F800F05CF8A5
:100190000AA090E8000C82448344AAF10107DA45E2
:1001A00001D100F051F8AFF2090EBAE80F0013F0D8
:1001B000010F18BFFB1A43F00103184718EB0000AA
:1001C00038EB00000A444FF0000C10F8013B13F02C
:1001D000070408BF10F8014B1D1108BF10F8015BA0
:1001E000641E05D010F8016B641E01F8016BF9D193
:1001F00013F0080F1EBF10F8014BAD1C0C1B09D1EA
:100200006D1E58BF01F801CBFAD505E014F8016B5B
:1002100001F8016B6D1EF9D59142D6D370470000ED
:100220000023002400250026103A28BF78C1FBD8FF
:10023000520728BF30C148BF0B6070471FB50DF093
:1002400041FF1FBD10B510BD00F090FA1146FFF739
:10025000F5FF0BF041F800F0AEFA03B4FFF7F2FF40
:1002600003BC00F013FB00002C4B19680868B0E8D1
:10027000F04F80F30988BFF36F8F4FF0000080F3D9
:10028000118870470000000008480068006880F38B
:1002900008884FF0000080F3148862B661B6BFF39F
:1002A0004F8FBFF36F8F00DF00BF00BF08ED00E08E
:1002B000DFF80C00016841F470010160704700BF75
:1002C00088ED00E0EFF30980BFF36F8F134B1A68DE
:1002D0001EF0100F08BF20ED108A20E9F04F1060CB
:1002E00009B44FF0500080F31188BFF34F8FBFF374
:1002F0006F8F0CF063F94FF0000080F3118809BC98
:1003000019680868B0E8F04F1EF0100F08BFB0EC95
:10031000108A80F30988BFF36F8F70476401002053
:10032000EFF30580704700000948804709480047FF
:10033000FEE7FEE7FEE7FEE7FEE7FEE7FEE7FEE795
:10034000FEE7FEE704480549054A064B70470000F2
:100350005D840008890100087874002078B40020CA
:1003600078940020789400209FED1A1AF5EE000A88
:1003700040EE010ABDEEE00AF5EEC00A10EE100AEA
:10038000F1EE10FA38BF401E00EE100A1349F7EEE6
:10039000001AB8EEC00A30EEC00ADFED0F0A20EEF8
:1003A000200AFCEEC00A10EE900AC0F3080000EE2E
:1003B000900A01EB8000F8EE600A90ED011A70EEF1
:1003C000600A90ED000A71EEE01A21EE800A00EE5C
:1003D000810A704783F9223E0000004494E400083B
:1003E000DFED190AB5EEC00A60EE200ABDEEE01A94
:1003F00011EE100AF1EE10FA38BF401E00EE100A9E
:100400001349F7EE001AB8EEC00A30EEC00ADFED6D
:100410000F0A60EE200ABCEEE00A10EE100AC0F3EC
:10042000080000EE100A01EB8000B8EE400A90EDE3
:10043000011A70EEC00A90ED000A71EEE01A21EE8A
:10044000800A00EE810A704783F9223E00000044D2
:1004500094E4000853EA020C00F069802DE9F04BA7
:100460004FF00006002B1FBFB3FA83F503FA05F423
:1004700024FA05F65E4012BF1643B2FA82F502FA7C
:1004800005F4C5F120051EBF22FA05FC44EA0C0460
:10049000203556EA044C4FEA144418BF641C4FF050
:1004A00000084FF00009904271EB030C39D300298A
:1004B00019BFB1FA81F701FA07F6B0FA80F700FA2E
:1004C00007F6C7F120071EBF20FA07FC46EA0C0614
:1004D0002037B6FBF4FCA7EB0507103F07F01F0B16
:1004E000CBF120060CFA0BFB2CFA06F644BFB34600
:1004F0000026202FA4BF5E464FF0000B5BEA060CDF
:1005000008BF4FF0010B19EB0B09ABFB027C48EB6A
:100510000608C01B06FB02CC0BFB03CC71EB0C01E5
:10052000C1E70B46024641464846BDE8F08B13B58D
:100530004FF000004FF00001AFF30080BDE81C4019
:10054000704710B5431C02E010F8011B71B1810720
:10055000FAD14FF0013202C88C1A8C4314EAC2114E
:10056000F9D0C01A0A0603D0C01E10BDC01A10BDB3
:100570000A0401D0801E10BD0902FCD0401E10BD2F
:10058000032A40F2308010F0030C00F0158011F8BF
:10059000013BBCF1020F624498BF11F801CB00F897
:1005A000013B38BF11F8013BA2F1040298BF00F8EB
:1005B00001CB38BF00F8013B11F0030300F02580A8
:1005C000083AC0F0088051F8043B083A51F804CBCF
:1005D000A0E80810F5E7121D5CBF51F8043B40F895
:1005E000043BAFF30080D20724BF11F8013B11F8A0
:1005F00001CB48BF11F8012B24BF00F8013B00F8E4
:1006000001CB48BF00F8012B704710B5203AC0F06D
:100610000B80B1E81850203AA0E81850B1E8185003
:10062000A0E81850BFF4F5AF5FEA027C24BFB1E840
:100630001850A0E8185044BF18C918C0BDE81040B1
:100640005FEA827C24BF51F8043B40F8043B08BFBA
:100650007047D20728BF31F8023B48BF11F8012B81
:1006600028BF20F8023B48BF00F8012B704702F07A
:10067000FF0343EA032242EA024200F037B84FF098
:10068000000200B5134694469646203922BFA0E8E2
:100690000C50A0E80C50B1F12001BFF4F7AF0907EE
:1006A00028BFA0E80C5048BF0CC05DF804EB8900DF
:1006B00028BF40F8042B08BF704748BF20F8022B22
:1006C00011F0804F18BF00F8012B7047704770473A
:1006D000704710B500F02AF8006810BD10B5044648
:1006E00000F024F8046010BD4FF000020429C0F0AF
:1006F000128010F0030C3FF4C4AFCCF1040CBCF139
:10070000020F18BF00F8012BA8BF20F8022BA1EBA5
:100710000C01FFF7B6BF5FEAC17C24BF00F8012BD4
:1007200000F8012B48BF00F8012B704700487047C4
:10073000187400201FB584B000200A9C06AB04AAE0
:1007400002A90094AFF3008018B1DDE9020108B0FE
:1007500010BD0348204000F037F800200146F6E7BE
:100760000000207C00487047187400207546FFF791
:10077000F9FFAE4605006946534620F0070085465E
:1007800018B020B5FFF7DEFDBDE820404FF00006B1
:100790004FF000074FF000084FF0000B21F0070169
:1007A000AC46ACE8C009ACE8C009ACE8C009ACE8AC
:1007B000C0098D46704710B50446AFF3008020464F
:1007C000BDE81040FFF749BD10B500F009F8BDE8DD
:1007D0001040AFF30080002801D000F057B87047F8
:1007E00010B5022803D0410103D50DA112E000206D
:1007F00010BD010101D50FA10CE0C10001D511A16F
:1008000008E0810001D512A104E0400001D513A148
:1008100000E0002115A000F03FF8012010BD00000D
:10082000496E76616C6964204F7065726174696F9E
:100830006E000000446976696465204279205A653B
:10084000726F00004F766572666C6F770000000073
:10085000556E646572666C6F77000000496E65784E
:1008600061637420526573756C7400005349474688
:1008700050453A2041726974686D657469632065FA
:100880007863657074696F6E3A2000000149182022
:10089000ABBEFEE72600020070B505460C460A20F6
:1008A00000E06D1C00F011F835B128780028F8D16F
:1008B00002E0641C00F009F814B120780028F8D197
:1008C000BDE870400A20AFF3008008B569468DF896
:1008D00000000320ABBE08BD704710B52DED028BA4
:1008E000B0EE408AB0EE480A08F0BCF9BDEC028BCD
:1008F00010BD10B52DED028BB0EE408AF0EE608A8F
:10090000F0EE680AB0EE480A08F042FABDEC028B3D
:1009100010BD10B52DED028BB0EE408AB0EE480A46
:10092000FFF722FDBDEC028B10BDF0EE400AF5EEA4
:10093000C00AF1EE10FA02DDB0EE600A7047B1EEC7
:10094000600AFBE718B19FED020A80ED000A7047CC
:100950000000000018B1B3EE060A80ED000A7047EF
:1009600070B52DED0C8B84B006460C4615469FEDF8
:10097000990AF0EE408A9FED970AB0EE409A9FEDFB
:10098000950AF0EE40BA9FED930AF0EE409A9FED83
:10099000910AB0EE40AA0EB104B11DB904B0BDEC8D
:1009A0000C8B70BD8C48FFF7CDFF8C48FFF7D2FF52
:1009B0008A48D0ED000A9FED8A1A60EE810AB0EEF7
:1009C000600A00F02DF9F0EE408A28EEA80AF0EE59
:1009D000408A8248D0ED000AB0EE001A60EE810A2B
:1009E0009FED7F1A60EE810AB0EE600A00F018F900
:1009F000B0EE409A29EE090AB0EE409ADFED790A8E
:100A0000B7EE000A00EEA80ADFED770A00EEC90A89
:100A1000DFED760A20EE200A754880ED000A6E4868
:100A200090ED000ADFED730A80EE201AB7EE000A9F
:100A300031EE000A20EE000A6D48D0ED000A80EE8B
:100A4000801A6D4880ED001A94ED000AB5EEC00AD8
:100A5000F1EE10FA0DD194ED010AB5EEC00AF1EEF7
:100A600010FA06D194ED020AB5EEC00AF1EE10FAC2
:100A700046D09FED580AB0EE408A002001900290C7
:100A80000390D4ED000A60EEA00A94ED011AD4EDB3
:100A9000011A41EE210A94ED021AD4ED021A41EE38
:100AA000210AB0EE600A00F0A9F8B0EE408A94ED99
:100AB000000A20EE080A8DED010A94ED010A20EEED
:100AC000080A8DED020A94ED020A20EE080A8DED67
:100AD000030ADDED010AF1EE600AB0EE600AFFF7ED
:100AE000FCFEF0EE409A9DED031AF0EE410A9DEDFA
:100AF000021AB0EE410AFFF7FCFEB0EE40AA07E092
:100B00009FED340AF0EE409A9FED320AB0EE40AA13
:100B100095ED000AB5EEC00AF1EE10FA0DD195ED93
:100B2000010AB5EEC00AF1EE10FA06D195ED020AFF
:100B3000B5EEC00AF1EE10FA3CD0B0EE690A00F052
:100B40006FF8B0EE408AB0EE690AFFF7E2FEB0EE51
:100B500040DAB0EE4A0A00F063F8F0EE40AAB0EED8
:100B60004A0AFFF7D6FEB0EE40BA28EE2A0AD5EDC3
:100B7000010A20EE200AD5ED000A0DEE200A68EEEB
:100B80000B0A95ED021A00EE810AB0EE40CA95ED0F
:100B9000010A20EE0B0AD5ED020A0AEEE00AF0EE99
:100BA00040CAF0EE6C0AB0EE4C0AFFF7A2FEF0EE7F
:100BB00040BA03E09FED070AF0EE40BAB0EE4A1AE1
:100BC000F0EE690AB0EE6B0A304608F057FC00BF41
:100BD000E4E6000000000000D8010020DC01002055
:100BE00035FA8E3CC1BFAD3B9DF8C5362F7C1C410C
:100BF000E0010020506CC24AE401002010B52DED48
:100C0000028BB0EE408AB0EE480A08F021FAB7EE47
:100C1000001AC1EE000AB0EE600ABDEC028B10BDF6
:100C200010B52DED028BB0EE408AB0EE480AFFF70A
:100C3000D7FBBDEC028B10BD2DE9F0412DED028BF1
:100C40009AB00546B0EE408A0E46174698460020F8
:100C50001790189019901490159016904DB146B1B8
:100C60003FB1B8F1000F04D0B5EEC08AF1EE10FA32
:100C700005D100201AB0BDEC028BBDE8F08196EDE5
:100C8000000A8DED170A96ED010A8DED180A96ED12
:100C9000020A8DED190A97ED000A8DED140A97ED01
:100CA000010A8DED150A97ED020A8DED160A17AAB5
:100CB00014A9284608F034FA402104A8FFF7DFFC05
:100CC00000200090019002900390002417A904A82E
:100CD0000BF0D4F900BF30E004A800EB041090ED55
:100CE000000AD5ED000A20EE200A04A800EB04104B
:100CF000D0ED010A95ED011A00EE810A04A800EB7F
:100D00000410D0ED020A95ED021A00EE810A04A843
:100D100000EB0410D0ED030A95ED031A00EE810AF2
:100D200020EE080AF0EE000A80EE201A684600EB7A
:100D3000840080ED001A601CC4B2042CCCDB0024BB
:100D400010E005EB840090ED000A684600EB84009B
:100D5000D0ED000A30EE200A05EB840080ED000A99
:100D6000601CC4B2042CECDB28460BF075F80120A3
:100D700080E7000010B501221021024801F0E6FDD5
:100D800010BD00000000024010B5002210210248F2
:100D900001F0DCFD10BD00000000024070470000C3
:100DA00010B501221146024801F0D0FD10BD00002F
:100DB0000004024010B500220121024801F0C6FDE6
:100DC00010BD00000004024010B543781B021BB2A6
:100DD0000478234300EE103AB8EEC01A1C4BD3ED52
:100DE000001A21EE211A81ED001AC3781B021BB2F2
:100DF0008478234300EE103AB8EEC01A144BD3EDBA
:100E0000001A21EE211A81ED011A43791B021BB24F
:100E10000479234300EE103AB8EEC01A0C4BD3ED20
:100E2000001A21EE211A81ED021A037A1B04C479FB
:100E300043EA04238479234300EE903AB8EE601A23
:100E4000DFED041A21EE211A82ED001A10BD000018
:100E50002C01002000401C42704710B5044620467B
:100E60000AF0E4FA10BD10B50446204609F02CFD46
:100E700010BD00004278120212B203781A4300EE4D
:100E8000102AF8EEC00A144A92ED001A60EE810AA8
:100E9000C1ED000AC278120212B283781A4300EE42
:100EA000102AF8EEC00A0C4A92ED001A60EE810A90
:100EB000C1ED010A4279120212B203791A4300EE1F
:100EC000102AF8EEC00A044A92ED001A60EE810A78
:100ED000C1ED020A704700003001002010B5002467
:100EE000FFF75CFFFFF7B8FF08F018FC10B144F003
:100EF000800402E008F078FB044308F007FE10B11C
:100F000044F0400402E008F087FD0443204610BD91
:100F10002DE9FC4105460E46174600200090019041
:100F2000FFF732FF922000F0D1F806226946122026
:100F300000F0ACF8FFF71EFF9DF80100000200B2C0
:100F40009DF8001040EA010400EE104AB8EEC00A15
:100F50004C48D0ED000A20EE200A86ED000A9DF8EC
:100F60000300000200B29DF8021040EA010400EE06
:100F7000104AB8EEC00A4348D0ED000A20EE200A1D
:100F800086ED010A9DF80500000200B29DF80410EC
:100F900040EA010400EE104AB8EEC00A3948D0ED2C
:100FA000000A20EE200A86ED020AFFF703FF08225E
:100FB0006946002000F06AF8FFF7F2FE9DF8000095
:100FC0000F2838D19DF80300000200B29DF80210EE
:100FD00040EA010400EE104AB8EEC00A2A48D0EDFB
:100FE000000A20EE200A85ED000A9DF805000002A7
:100FF00000B29DF8041040EA010400EE104AB8EE79
:10100000C00A2148D0ED000A20EE200A85ED010A31
:101010009DF80700000200B29DF8061040EA0104A6
:1010200000EE104AB8EEC00A1748D0ED000A20EED4
:10103000200A85ED020AFFF7A7FEA22000F046F87D
:1010400002226946222000F021F8FFF793FE9DF866
:101050000000C0009DF8011040EA6114B4F5806FF3
:1010600002DBA4F5006004B200EE104AF8EEC00AFC
:10107000B4EE001AB3EE070A00EE810A87ED000A0B
:10108000BDE8FC812C0100203001002070B506462F
:101090000C46154646F0800000F018F806E0552092
:1010A00000F014F82070641C681EC5B2002DF6D143
:1010B00070BD70B504460D4644F0800000F006F89F
:1010C000552000F003F8287070BD000001B582B013
:1010D0004FF47A70012301AA02A90090024802F09D
:1010E000B5FD9DF804000EBD5409002010B5024660
:1010F0001378DB00547843EA6410B0F5806F02DBAC
:10110000A0F5006318B200EE100AF8EEC00AB4EEC3
:10111000001AB3EE070A00EE810A81ED000A10BD45
:1011200070B505460C462846FFF7D0FF2046FFF76E
:10113000CDFF70BD00BFFEE710B5024800F0EBFE2A
:1011400010BD00009008002010B5024800F0E3FE3A
:1011500010BD0000B8080020F8B507460C4615463B
:101160001E464FF400700D49086000208860C8607A
:1011700008200861380A0A4908704F70200A8870F0
:10118000CC70280A08714D71300A8871CE716B4697
:101190000A460249034800F0F0FCF8BD040D0020A7
:1011A0003800002090080020F8B507460C46154688
:1011B0001E4640F2FF100D49086000208860C8609C
:1011C00008200861380A0A4908704F70200A8870A0
:1011D000CC70280A08714D71300A8871CE716B4647
:1011E0000A460249034800F0C8FCF8BD1C0D002067
:1011F000400000209008002010B5FE48C06C006838
:10120000FD49884276D9FC4854380068F949C96CD0
:101210000968FA4A914201D1202169E0F549C96C77
:101220000968F54A483A914201D1202160E0F1492C
:10123000C96C0968F14A6032914201D1202157E01E
:10124000EC49C96C0968EC4A1832914201D120215D
:101250004EE0E849C96C0968E84A1832914201D168
:10126000C91445E0E349C96C0968E34A303A914240
:1012700001D1C9143CE0DF49C96C0968DF4A783202
:10128000914201D1C91433E0DA49C96C0968DA4ADC
:101290003032914201D1C9142AE0D649C96C09689B
:1012A000D64A3032914202D14FF4001120E0D149A8
:1012B000C96C0968D04A183A914202D14FF4001122
:1012C00016E0CC49C96C0968CC4A9032914202D1EF
:1012D0004FF400110CE0C749C96C0968C64A48328E
:1012E000914203D14FF4001102E003E04FF000619E
:1012F000084070E1BF48C06C0068C049A83188420E
:1013000076D9BD4858380068BA49C96C0968BB4AE3
:10131000914201D1202169E0B649C96C0968B64AF9
:10132000483A914201D1202160E0B249C96C096874
:10133000B24A6032914201D1202157E0AD49C96CD7
:101340000968AD4A1832914201D120214EE0A949E5
:10135000C96C0968A94A1832914201D1C91445E003
:10136000A449C96C0968A44A303A914201D1C91410
:101370003CE0A049C96C0968A04A7832914201D189
:10138000C91433E09B49C96C09689B4A30329142C9
:1013900001D1C9142AE09749C96C0968974A3032CB
:1013A000914202D14FF4001120E09249C96C0968C2
:1013B000914A183A914202D14FF4001116E08D493A
:1013C000C96C09688D4A9032914202D14FF40011E4
:1013D0000CE08849C96C0968874A4832914203D1B8
:1013E0004FF4001102E003E04FF000610840F2E02A
:1013F0008048C06C006881494831884276D97F486E
:10140000103840687B49C96C09687C4A914201D117
:10141000202169E07749C96C0968774A483A9142C6
:1014200001D1202160E07349C96C0968734A6032B8
:10143000914201D1202157E06E49C96C09686E4A7A
:101440001832914201D120214EE06A49C96C0968E5
:101450006A4A1832914201D1C91445E06549C96C04
:101460000968654A303A914201D1C9143CE06149AA
:10147000C96C0968614A7832914201D1C91433E0DC
:101480005C49C96C09685C4A3032914201D1C91487
:101490002AE05849C96C0968584A3032914202D151
:1014A0004FF4001120E05349C96C0968524A183AB8
:1014B000914202D14FF4001116E04E49C96C0968FF
:1014C0004E4A9032914202D14FF400110CE049494A
:1014D000C96C0968484A4832914203D14FF400115F
:1014E00002E003E04FF00061084074E04348103828
:1014F00000684049C96C0968404A914201D12021E5
:1015000068E03C49C96C09683B4A483A914201D1BC
:1015100020215FE03749C96C0968384A603291423E
:1015200001D1202156E03349C96C0968324A18328A
:10153000914201D120214DE02E49C96C09682F4A02
:101540001832914201D1C91444E02A49C96C096892
:10155000294A303A914201D1C9143BE02549C96C6E
:101560000968264A7832914201D1C91432E02149F2
:10157000C96C0968204A3032914201D1C91429E06E
:101580001C49C96C09681D4A3032914202D14FF49E
:1015900000111FE01749C96C0968174A183A9142AF
:1015A00002D14FF4001115E01249C96C0968134AC1
:1015B0009032914202D14FF400110BE00D49C96CF9
:1015C00009680D4A4832914202D14FF4001101E0FE
:1015D0004FF00061084000286FD00648C06C0068DA
:1015E000054988427BD90348C06C0068034988429A
:1015F00008D105E054090020586402401060024000
:10160000202068E0FE48C06C0068FE49884201D195
:10161000202060E0FA48C06C0068FB49884201D194
:10162000202058E0F648C06C0068F64960318842D6
:1016300001D120204FE0F248C06C0068F2494839DF
:10164000884201D1C01446E0ED48C06C0068ED4905
:101650001831884201D1C0143DE0E948C06C0068EF
:10166000E9491831884201D1C01434E0E448C06C23
:101670000068E4497831884201D1C0142BE0E04889
:10168000C06C0068E0493039884202D14FF4001044
:1016900021E0DB48C06C0068DA493031884202D171
:1016A0004FF4001017E0D648C06C0068D6493031BE
:1016B000884204D14FF400100DE0D4E10FE0D0488F
:1016C000C06C0068CF499031884202D14FF40010BD
:1016D00001E04FF00060CB49091F08606AE1C8488B
:1016E000C06C0068C8494831884274D9C448C06C8D
:1016F0000068C5496039884201D1202066E0C048B1
:10170000C06C0068BF49884201D120205EE0BC481F
:10171000C06C0068BC49884201D1202056E0B8481E
:10172000C06C0068B7496031884201D120204DE08B
:10173000B348C06C0068B4494839884201D1C0142C
:1017400044E0AF48C06C0068AE491831884201D10E
:10175000C0143BE0AA48C06C0068AB49183188420D
:1017600001D1C01432E0A648C06C0068A5497831A8
:10177000884201D1C01429E0A148C06C0068A24988
:101780003039884202D14FF400101FE09C48C06CF1
:1017900000689C493031884202D14FF4001015E0B6
:1017A0009748C06C006898493031884202D14FF4A4
:1017B00000100BE09248C06C00689249903188425A
:1017C00002D14FF4001001E04FF000608D4908395C
:1017D0000860EFE0FFE78A48C06C00688A49183962
:1017E000884274D98648C06C00688749603988424D
:1017F00001D1202066E08248C06C0068814988429F
:1018000001D120205EE07E48C06C00687E4988429D
:1018100001D1202056E07A48C06C006879496031D7
:10182000884201D120204DE07548C06C006876499F
:101830004839884201D1C01444E07148C06C006846
:1018400070491831884201D1C0143BE06C48C06C2B
:1018500000686D491831884201D1C01432E06848EF
:10186000C06C006867497831884201D1C01429E012
:101870006348C06C006864493039884202D14FF433
:1018800000101FE05E48C06C00685E49303188423D
:1018900002D14FF4001015E05948C06C00685A4955
:1018A0003031884202D14FF400100BE05448C06C34
:1018B000006854499031884202D14FF4001001E091
:1018C0004FF0006050497039C86073E0FFE74C4842
:1018D000C06C00684C496039884201D1202066E024
:1018E0004748C06C00684749884201D120205EE02B
:1018F0004348C06C00684449884201D1202056E02A
:101900003F48C06C00683F496031884201D12020C7
:101910004DE03B48C06C00683B494839884201D1E2
:10192000C01444E03648C06C00683649183188421B
:1019300001D1C0143BE03248C06C00683249183114
:10194000884201D1C01432E02D48C06C00682D4996
:101950007831884201D1C01429E02948C06C006860
:1019600029493039884202D14FF400101FE0244841
:10197000C06C006823493031884202D14FF4001016
:1019800015E01F48C06C00681F493031884202D101
:101990004FF400100BE01A48C06C006819499031F0
:1019A000884202D14FF4001001E04FF00060164968
:1019B000703988601548007800F0020078B113484B
:1019C000007820F00200114908700846007840F0C5
:1019D00004000870012211460D4800F0B7FF0D48C1
:1019E000007800F00200E0B10A48007820F0020020
:1019F000084908700846007840F0040008700BE0C1
:101A000054090020106402407060024089000020E8
:101A1000000402408A00002001221021124800F038
:101A200095FF1248007800F0020078B10F48007866
:101A300020F002000D4908700846007840F00400CC
:101A4000087001221021084800F080FF09F0A0F979
:101A50000748007800F0040028B10648006840F00C
:101A600001000449086010BD000002408B00002006
:101A700089000020103C014001680A4BCAB2103AAC
:101A8000A3FB02321209084B9B5CC365032A04D9ED
:101A90006FF30901091D816502E06FF3090181659A
:101AA000806D7047ABAAAAAA7EE400080146002018
:101AB0008A6A8B69002B0FD0B3F5005F1DD08AB303
:101AC000012A30D0022A2ED0032A04D1C96A11F08B
:101AD000807F00D0012070471AB1012A07D0022A66
:101AE000F9D1C96A11F0807FF5D001207047C96A29
:101AF000B1F1C07FFAD1012070475AB1012A0BD051
:101B0000022A07D0032AF7D1C96AB1F1C07FF3D105
:101B10000120704701207047C96A11F0807FFAD018
:101B200001207047FFE701207047704710B5012082
:101B300000F0F2FD10BD10B5082000F0EDFD10BD65
:101B400010B5102000F0E8FD10BD10B5202000F009
:101B5000E3FD10BD704790F82020012A07D0022A2B
:101B600005D0416A41F4802141620120704700683C
:101B70004269114341610020704770B490F82040E1
:101B8000D0F800C0DCF808C0012C08D0022C06D028
:101B9000416A41F48021416270BC012070470CF021
:101BA00080640CF000652C4302D11CF0805F5FD094
:101BB000CCF3016CBCF1020F06D9416A41F400017B
:101BC000416270BC01207047012404FA0CF41C60CF
:101BD0008B684FF4C0749BB1CD6804EB0C162B439B
:101BE0004D6843EAC5030568AB514FF4C2730668FC
:101BF00003EB0C130D69F550097D012909D00DE0A7
:101C00000D88CB6804EB0C1643EA45530568AB51CD
:101C1000EBE70168CD5845F48075CD501179D37943
:101C2000557941EA036193791B0443EA052319437B
:101C30004FF4C675036805EB0C1559511178D3782C
:101C400041EA0361937852781B0443EA022211436C
:101C50004FF4C473026803EB0C13D150016804EB1A
:101C60000C100A5842F001020A5070BC0020704764
:101C7000416A41F40011416270BC012070470000CC
:101C800090F82020012A07D0022A05D0416A41F4A9
:101C900080214162012070474248D0F8002242F082
:101CA0000102C0F80022D0F8002222F47C52C0F8D1
:101CB0000022D0F800224B6A42EA0322C0F8002238
:101CC0000A7D012302F01F0203FA02F2D0F81C324F
:101CD0009343C0F81C32CB69D3B9D0F80C3293438C
:101CE000C0F80C32B1F80CC04B686CF31F43D1F84C
:101CF00014C000EBCC0CCCF84032B1F808C00B6833
:101D00006CF31F43D1F814C000EBCC0CCCF8443278
:101D1000CB69012B1AD1D0F80C321343C0F80C3226
:101D2000B1F800C04B686CF31F43D1F814C000EB4E
:101D3000CC0CCCF84032B1F808C0CB686CF31F4330
:101D4000D1F814C000EBCC0CCCF844328B697BB1D9
:101D5000D0F804321343C0F804320B6973B1D0F8E1
:101D600014321343C0F81432096A01290CD010E070
:101D7000D0F804329343C0F80432EEE7D0F81432BE
:101D80009343C0F81432EFE7D0F81C121143C0F8A7
:101D90001C12D0F8001221F00101C0F8001200203E
:101DA0007047000000640040704710B490F820C0F5
:101DB000BCF1010F09D0BCF1020F06D0416A41F419
:101DC0008021416210BC0120704739B1D0F800C0B9
:101DD000DCF810C01CF0030F7DD006E0D0F800C086
:101DE000DCF80CC01CF0030F7BD04FF4D87C0468E7
:101DF0000CEB011C54F80C4004F004049460002C1B
:101E00007DD0046854F80C40E4085460046854F829
:101E10000CC0CCF3400CC2F80CC04FF4DA7C046860
:101E20000CEB011C54F80C4004F00F04146104681E
:101E300054F80C40C4F307249461046854F80CC0AF
:101E40004FEA1C4CC2F814C04FF4DC72D0F800C04A
:101E500002EB01125CF802C083F800C0D0F800C0A9
:101E60005CF802C04FEA1C2C83F801C0D0F800C017
:101E70005CF802C04FEA1C4C83F802C0D0F800C0E6
:101E80005CF80220120EDA704FF4DE72D0F800C057
:101E900002EB01125CF802C083F804C0D0F800C065
:101EA0005CF802C04FEA1C2C83F805C0D0F800C0D3
:101EB0005CF802C04FEA1C4C83F806C0D0F800C0A2
:101EC0005CF80220120EDA71F9B10068016941F084
:101ED0002001016102E00BE003E010E010BC0020F3
:101EE0007047416A41F40011416210BC0120704703
:101EF000416A41F40011416210BC0120704704683E
:101F000054F80C40640D146080E70068C16841F02B
:101F10002001C160DEE72DE9F05F05460024286856
:101F20004669D0F804908768D0F80CA0D0F810B0BB
:101F3000D0F8188016F0010F54D017F0010F17D009
:101F40000121816017F0020F03D0284600F014FB36
:101F50000EE017F0040F02D04FF4006408E017F011
:101F6000080F02D04FF4805402E0284600F003FB33
:101F700017F4807F19D029684FF48070886017F4B7
:101F8000007F03D0284600F0F9FA0EE017F4806FC6
:101F900002D044F4005408E017F4006F02D044F477
:101FA000804402E0284600F0E8FA17F4803F19D098
:101FB00029684FF48030886017F4003F03D028462A
:101FC00000F0DEFA0EE017F4802F02D044F4004453
:101FD00008E017F4002F02D044F4803402E02846D1
:101FE00000F0CDFA16F0080F07D01AF0100F04D049
:101FF00044F4007429681020C86016F0040F4FF0F4
:10200000080707D01AF0080F04D02868C7602846D0
:1020100000F000FA16F0020F07D02868C06810F030
:10202000030F02D0284600F0F7F916F0400F07D052
:102030001BF0100F04D044F480642968102008615C
:1020400016F0200F07D01BF0080F04D02868076196
:10205000284600F05BFA16F0100F07D028680069D8
:1020600010F0030F02D0284600F051FA16F4003F9A
:1020700008D019F0100F05D02968102048602846B4
:1020800000F046FA16F4803F07D019F0080F04D08C
:1020900028684760284600F074FA16F4004F4AD0CA
:1020A00019F0040F44D016F4807F04D018F0010F0B
:1020B00001D044F0010416F4007F04D018F0020FA0
:1020C00001D044F0020416F4806F04D018F0040F1D
:1020D00001D044F0040416F4006F29D018F0700FFA
:1020E00026D008F07000402815D006DC102809D052
:1020F00020280AD0302816D10AE050280ED06028B7
:1021000011D10EE044F008040DE044F010040AE0A0
:1021100044F0200407E044F0400404E044F080046C
:1021200001E044F480742868816921F070018161C4
:10213000296804204860002C05D0686A2043686242
:102140002846FFF731FEBDE8F09F70B50446002C2D
:1021500003D094F8200010B104E0012070BD2046A7
:1021600000F0A8F82068016821F00201016000F089
:10217000F5FB0546206840684FF0050610F0020F99
:1021800011D000F0EBFB401B0A2807D9606A40F42D
:102190000030606284F82060012070BD20684068D3
:1021A00010F0020FEDD12068016841F001010160DB
:1021B00000F0D4FB05462068406810F0010F11D1F3
:1021C00000F0CCFB401B0A2807D9606A40F40030BD
:1021D000606284F82060012070BD2068406810F0C3
:1021E000010FEDD0207E01283FD02068016821F04A
:1021F00080010160607E01283DD02068016821F0E7
:1022000040010160A07E01283BD02068016821F0D8
:1022100020010160E07E012839D02068016841F08A
:1022200010010160207F012837D02068016821F06B
:1022300008010160607F012835D02068016821F025
:1022400004010160E168A0686269084321691143E3
:1022500008436168491E08432168C8610020606224
:10226000012084F82000002070BD2068016841F042
:1022700080010160BEE72068016841F04001016013
:10228000C0E72068016841F020010160C2E72068D2
:10229000016821F010010160C4E72068016841F085
:1022A00008010160C6E72068016841F0040101608F
:1022B000C8E7000010B586B00446142101A8FEF757
:1022C000DEF94E492068884241D14D480068401CE3
:1022D0004B4908600846006801280FD100BF002064
:1022E00000904848006840F0007046490860084681
:1022F000006800F00070009000BF00BF00BF002029
:10230000009040481038006840F008003D491039FE
:1023100008600846006800F00800009000BF00BF99
:1023200003200190022002900020039003200490DB
:102330000920059001A9344800F0FAF9002206218D
:10234000142000F0D7FE142000F0C6FE54E02F4900
:102350002068884250D100BF0020009029480068C2
:1023600040F08060274908600846006800F08060FF
:10237000009000BF00BF22480068401C2049086050
:102380000846006801280FD100BF002000901D48BA
:10239000006840F000701B4908600846006800F0C3
:1023A0000070009000BF00BF00BF002000901548E3
:1023B0001038006840F002001249103908600846E1
:1023C000006800F00200009000BF00BF6020019094
:1023D0000220029000200390032004900920059021
:1023E00001A90B4800F0A4F900220621402000F0CA
:1023F00081FE402000F070FE06B010BD0064004079
:102400001800002040380240000C024000680040E4
:10241000000402407047000010B58AB0044601ABCA
:1024200003AA00212046FFF7C0FC344884425DD156
:102430000398A0F20120082856D2DFE800F0040536
:10244000060708090A0B00BF00BF00BF00BF00BF9E
:1024500000BF00BF0398401E294908700846007855
:1024600000EB8000274931F8100000B224490978B8
:1024700001EB8101234A02EB410108819DF805002F
:102480009DF8041040EA01201D49097801EB810103
:1024900022F811009DF807009DF8061040EA01207F
:1024A00000B21749097801EB810102EB4101488034
:1024B0009DF809009DF8081040EA012000B210497B
:1024C000097801EB810102EB410188809DF80A0047
:1024D0000B49097801EB810102EB41018871084841
:1024E000007808F03BFF00E000BF05E006488442AA
:1024F00002D100BF00BF00BF0AB010BD900800208D
:1025000048000020A40C0020B80800207047704745
:10251000704770B5044694F82000012805D0606A21
:1025200040F400206062012070BD022084F8200089
:102530002068016821F00101016000F00FFA0546F2
:102540002068406810F0010F12D000F007FA401B1D
:102550000A2808D9606A40F400306062052084F8D7
:102560002000012070BD2068406810F0010FECD100
:102570000020606270BD70477047704770477047B9
:10258000704770472DE9F041044600F0E7F9054631
:10259000DCB1002684F83460022084F8350020681D
:1025A000016821F0010101602068006810F0010F4E
:1025B00013D000F0D3F9401B052809D9202060650D
:1025C000032084F83500BDE8F0810120BDE8F081EA
:1025D0002068006810F0010FEBD121680868234AD9
:1025E0001040A3686268D4F810C01A43E36843EA55
:1025F0000C031A4363691A43A3691A43E3691A4334
:10260000236A1A431043626A042A03D1236BE26AE5
:102610001A43104308602068406920F00701606A8F
:1026200040EA0105012704280ED1A06A0543E06AAB
:1026300050B12046FFF73AFA30B14020606584F887
:1026400035700120BDE8F081206845612046FFF724
:1026500013FA94F85C103F2202FA01F1816066657A
:1026600084F835700020BDE8F08100003F8010F054
:1026700010B50446102C11D11F48007840F001001D
:102680001D4908701D48007840F001001B49087082
:102690001B48007870B308F07BFB2BE0202C0BD19B
:1026A0001848007840F00100164908701448007876
:1026B00000B308F06DFB1DE0082C06D1124800782D
:1026C00040F001001049087014E0012C12D10AF00A
:1026D0006FFB01280ED00D490D48006809F086FEF9
:1026E0000A48006830B120070A490860BFF34F8FDD
:1026F000BFF36F8F10BD00008A0000208B00002008
:102700008D000020890000208C00002000010020A6
:102710006400002004ED00E010B504490A6802429C
:1027200002D00860FFF7A4FF10BD0000143C014078
:102730002DE9F84F0022DFF80082DFF80092DFF881
:1027400000A24FF0030E0F27012303FA02F50B68D6
:102750002B40AB427DD1D1F804C0BCF1020F02D0B6
:10276000BCF1120F12D14FEAD20C00EB8C0CDCF84A
:1027700020605407E40E07FA04FB26EA0B06D1F8A2
:1027800010B00BFA04F43443CCF8204006684FEA4A
:10279000420C0EFA0CF4A64391F804B00BF0030BB4
:1027A0000BFA0CFB4BEA060606604E68012E05D0BC
:1027B000022E03D0112E01D0122E11D18668A6430D
:1027C000D1F80CB00BFA0CFB4BEA060686604668A3
:1027D00026EA05050E79C6F3001696403543456096
:1027E000C56825EA04048D6805FA0CFC4CEA040C63
:1027F000C0F80CC0D1F804C01CF0805F7DD0D8F8C0
:1028000000C04CF4804CC8F800C0D8F800C00CF4EC
:10281000804CCDF800C022F0030C0CF1804404F58C
:102820009834D4F808C895072D0F07FA05F62CEA56
:102830000606A0F1804CBCF5003C64D0A0F1804CB1
:10284000BCF5013C62D0A0F1804CBCF5023C60D0EC
:1028500000E052E0A0F1804CBCF5033C5CD0A0F15C
:10286000804CBCF5043C5AD0A0F1804CBCF5053C32
:1028700058D0A0F1804CBCF5063C56D0A0F1804C5D
:10288000BCF5073C54D04FF0080C0CFA05FC4CEAA0
:10289000060CC4F808C8D9F800C02CEA030C4C6830
:1028A00014F4803F01D04CEA030CC9F800C0254C59
:1028B000D4F800C02CEA030C4D6815F4003F01D099
:1028C0004CEA030CC4F800C0DAF800C02CEA030C90
:1028D0004C6814F4801F01D04CEA030CCAF800C005
:1028E000194CD4F800C02CEA030C4D6815F4001FF5
:1028F00001D04CEA030CC4F800C0521C102AFFF4AB
:1029000023AFBDE8F88F4FF0000CBEE74FF0010C8D
:10291000BBE74FF0020CB8E74FF0030CB5E74FF000
:10292000040CB2E74FF0050CAFE74FF0060CACE734
:102930004FF0070CA9E7000044380240003C01407A
:10294000083C0140043C01400C3C0140002A01D0FD
:102950008161704709048161704700000148806807
:10296000704700005801002070B50446002C04D0C8
:1029700094F83D00002510B106E0012070BD84F8F8
:102980003C50204600F0D6FA242084F83D00206810
:10299000016821F00101016000F070FD544B616895
:1029A000994203D85349884203D304E052498842EC
:1029B00001D2012070BD5149B0FBF1F12268D2F87B
:1029C00004C02CF03F0C4CEA010CC2F804C0626851
:1029D0009A4201D84A1C07E04FF4967251434FF4D3
:1029E0007A72B1FBF2F14A1C2168D1F820C02CF0B8
:1029F0003F0C42EA0C020A626168994210D8490011
:102A0000401EB0FBF1F2521CC2F30B02042A01D2A9
:102A1000042026E0B0FBF1F0401CC0F30B0020E0E6
:102A2000A268002A50D001EBC10303EB0113A0F10F
:102A3000010CBCFBF3F35B1C43F480431B051B0D33
:102A40004AD0002A4AD001EBC10202EB0111401E1C
:102A5000B0FBF1F0401CC0F30B0040F4804040F4A8
:102A600000402168CA6922F0FF0222F44F4210435D
:102A7000C861216AE06901432068026822F0C0024F
:102A800011430160E168206901432068826822F0F7
:102A9000FF0222F4034211438160A169606901438E
:102AA0002068C26822F0FF021143C16020680168FB
:102AB00041F0010101602564202084F83D00256378
:102AC00084F83E50002070BD01EB4103A0F1010CE1
:102AD000BCFBF3F35B1CB1E70120C2E701EB410152
:102AE000401EB0FBF1F0401CC0F30B00B7E7000044
:102AF000A086010080841E0000093D0040420F00B6
:102B00002DE9FF4F83B004468A469346DDF8449092
:102B1000DDF84080129EFFF721FF054694F83D0046
:102B2000202803D007B00220BDE8F08F192301222E
:102B3000A0492046009501F0ABFE18B107B0022075
:102B4000BDE8F08F94F83C00012808D0012084F8FB
:102B50003C002068016811F0010F04D007E007B0C5
:102B60000220BDE8F08F016841F00101016020689A
:102B7000016821F400610160222084F83D004020BA
:102B800084F83E0000272764C4F82480A4F82A9023
:102B9000608D20858848E062019500965A4651462E
:102BA0002046069B01F04CFD18B107B00120BDE89E
:102BB000F08F208D10B3012829D0022835D020684D
:102BC000416980690290208D002800F0E880DFF8DC
:102BD000EC81208D032800F2B780012834D0022830
:102BE0004AD03346002241462046009501F050FE6F
:102BF00000286CD007B00120BDE8F08F2068416943
:102C000081690291016841F400710160DBE720688D
:102C1000016821F480610160206841698169029145
:102C2000016841F400710160CDE72068016821F47A
:102C3000806101602068016841F4006101602068E2
:102C4000416980690290BEE72A463146204601F07C
:102C5000E0FE18B107B00120BDE8F08F20680069E0
:102C6000616A0870606A401C6062208D401E208589
:102C7000608D401E60858EE033460022414620462E
:102C8000009501F005FE18B107B00120BDE8F08FF6
:102C90002068016841F40071016020680069616A80
:102CA0000870606A401C6062218D491E2185618D1B
:102CB000491E6185216809690170606A401C606273
:102CC000208D401E2085608D401E608563E0206859
:102CD000016821F48061016020680069616A087000
:102CE000606A401C6062208D401E2085608D401E01
:102CF00060853346002241462046009501F0C8FD1C
:102D000018B107B00120BDE8F08F2068016841F4D8
:102D10000071016020680069616A0870606A401C87
:102D20006062218D491E2185618D491E6185216862
:102D300009690170606A401C6062208D401E208518
:102D4000608D401E608526E02A463146204601F00F
:102D500060FE18B107B00120BDE8F08F206800695F
:102D6000616A0870606A401C6062218D491E21857D
:102D7000618D491E61852268516911F0040F0AD0E6
:102D800011690170606A401C6062208D401E2085C0
:102D9000608D401E6085208D00287FF41AAF2020B2
:102DA00084F83D0084F83E7084F83C7007B0002041
:102DB000BDE8F08F020010000000FFFF04000100DA
:102DC0002DE9FF4F83B004468A469346DDF84490D0
:102DD000DDF84080129EFFF7C1FD054694F83D00E6
:102DE000202803D007B00220BDE8F08F192301226C
:102DF0004E492046009501F04BFD18B107B0022066
:102E0000BDE8F08F94F83C00012808D0012084F838
:102E10003C002068016811F0010F04D007E007B002
:102E20000220BDE8F08F016841F0010101602068D7
:102E3000016821F400610160212084F83D004020F8
:102E400084F83E0000272764C4F82480A4F82A9060
:102E5000608D20853648E062019500965A465146BD
:102E60002046069B01F086FC18B107B00120BDE8A2
:102E7000F08F208D002836D02A463146204601F0BA
:102E800006FE58B1206C042804D12068016841F482
:102E90000071016007B00120BDE8F08F606A216811
:102EA00000780861606A00F1010CC4F824C0208D2C
:102EB000401E80B22085618D491E61852368596955
:102EC00011F0040F0CD058B19CF800001861606A32
:102ED000401C6062208D401E2085608D401E6085F4
:102EE000208D0028C8D12A463146204601F0A2FC98
:102EF00058B1206C042804D12068016841F40071A5
:102F0000016007B00120BDE8F08F2068016841F43E
:102F100000710160202084F83D0084F83E7084F840
:102F20003C7007B00020BDE8F08F000002001000E8
:102F30000000FFFF10B586B00446142101A8FDF77C
:102F40009EFB2A49206888424DD100BF0020009096
:102F50002748006840F004002549086008460068DA
:102F600000F00400009000BF00BF00BF00200090F0
:102F70000846006840F0010008600846006800F05C
:102F80000100009000BF00BF481501901220029080
:102F900001200390032004900420059001A9154806
:102FA000FFF7C6FB4FF480700190122002900120C1
:102FB0000390032004900420059001A90E48FFF718
:102FC000B7FB00BF0020009009481030006840F4B3
:102FD00000000749103108600846006800F400004E
:102FE000009000BF00BF06B010BD0000005C0040B4
:102FF0003038024000080240000002400248816868
:1030000002781144816070475801002010B50B48C8
:10301000016841F400710160016841F48061016060
:10302000016841F480710160032000F097F80F20DF
:1030300000F006F800F026F8002010BD003C024029
:1030400070B504460D4D4FF47A712878B1FBF0F05D
:103050000B490968B1FBF0F000F0F4FE08B1012063
:1030600070BD102C07D200222146501E00F042F8FD
:103070006C60002070BD012070BD00005801002070
:103080001C00002008B500BF002000901148006817
:1030900040F480400F4908600846006800F4804012
:1030A000009000BF00BF00BF00200090081F006814
:1030B00040F08050091F08600846006800F080500A
:1030C000009000BF00BF00220F21901E00F012F8F8
:1030D00008BD00004438024000280ADB00F01F0150
:1030E000012202FA01F14009800000F1E020C0F85D
:1030F0000011704710B4184B1B68C3F30223C3F1CF
:10310000070CBCF1040F01D94FF0040C1C1D072C57
:1031100001D2002300E0DB1E012404FA0CFCACF118
:10312000010C0CEA0101994004FA03F35B1E1A40FA
:103130001143002806DB00F1E020090180F80014AB
:1031400010BC704700F00F0000F1E020090180F88A
:10315000141D10BC704700000CED00E000F00700EB
:10316000064A11684FF6FF03194041EA002040F07B
:10317000FD7040F080601060704700000CED00E0D2
:103180002DE9F84304464FF0010820784FF000077E
:1031900010F0050F33D0DFF84491C9F86870FFF7DD
:1031A000DDFB06464E4D286810F0006F0BD0FFF790
:1031B000D5FB801B022802D90320BDE8F8832868CC
:1031C00010F0006FF3D16068217A800140EA01704D
:1031D00044490860C9F86880FFF7C0FB06462868C4
:1031E00010F0006F0BD1FFF7B9FB801B022802D94A
:1031F0000320BDE8F883286810F0006FF3D0207832
:1032000010F0020F5CD03848016841F08051016035
:10321000006800F080500090344D286840F48070C1
:103220002860FFF79BFB0646286810F4807F0BD1CF
:10323000FFF794FB801B022802D90320BDE8F88326
:10324000286810F4807FF3D0294D286800F440707E
:1032500028B3A18901F44071814220D0286820F46C
:1032600040702449C1F800800F602860286810F081
:10327000010F14D0FFF772FB0646286810F0020F0A
:103280000DD141F28837FFF769FB801BB84202D9A4
:103290000320BDE8F883286810F0020FF3D0E0683F
:1032A0004FF4407131EA000213490CD0086820F451
:1032B000F81008602868A189C1F30B010843286051
:1032C0000020BDE8F8830A6820F4407022F4F81268
:1032D00020F0704010430860ECE700000000474217
:1032E00000380240843802404038024000700040FC
:1032F00070380240400E4742083802402DE9F0473E
:1033000004460D46002C13D0DFF85091D9F8000088
:10331000EFB200F00F00A8420DD289F80070D9F882
:10332000000000F00F00A84205D00120BDE8F087A2
:103330000120BDE8F0872068494E10F0020F14D03C
:1033400010F0040F03D0306840F4E0503060207873
:1033500010F0080F03D0306840F4604030603068EF
:10336000A16820F0F00008433060207810F0010FD1
:103370003ED060683B49012808D002280DD00328C0
:103380000BD0096811F0020F28D00AE0096811F487
:10339000003F06D10120BDE8F087096811F0007FE9
:1033A00019D0316821F0030108433060FFF7D6FAE5
:1033B00080463068616800F00C00B0EB810F17D0D8
:1033C00041F2883AFFF7CAFAA0EB0800504508D945
:1033D0000320BDE8F0870120BDE8F0870120BDE8AB
:1033E000F0873068616800F00C00B0EB810FE9D124
:1033F000D9F8000000F00F00A8420AD989F800703F
:10340000D9F8000000F00F00A84202D00120BDE86A
:10341000F087207810F0040F05D03068E16820F4C0
:10342000E05008433060207810F0080F06D0306874
:10343000216920F4604040EAC100306000F03EF8AD
:103440003168094AC1F30311515CC840074908605B
:103450000F20FFF7F5FD0020BDE8F087003C02409B
:103460000838024000380240ECE300081C0000204D
:1034700001480068704700001C00002000B5FFF7FD
:10348000F7FF04490968044AC1F38221515CC8402E
:1034900000BD000008380240FCE3000800B5FFF75B
:1034A000E7FF04490968044AC1F34231515CC8404E
:1034B00000BD000008380240FCE3000810B51748C2
:1034C000006810F00C01164816D0164B042912D0D3
:1034D000082911D1144C216801F03F02216811F430
:1034E000800F0AD02068C0F38810A0FB03010023DE
:1034F000FCF7B0FF09E0184610BD21680023C1F3B6
:103500008811A1FB0001FCF7A5FF2168C1F301416F
:10351000491C4900B0FBF1F010BD00000838024022
:103520000024F400001BB700043802402DE9F84FD6
:103530000446002C10D02078FA4D10F0010F64D012
:10354000F948016801F00C0104290DD0006800F071
:103550000C00082803D011E00120BDE8F88FF348E3
:10356000006810F4800F09D0286810F4003F4CD098
:103570006068002849D10120BDE8F88F6068B0F587
:10358000803F14D0B0F5A02F16D0286820F48030EA
:103590002860286820F480202860606810B3FFF756
:1035A000DDF90646286810F4003F0ED02DE02868AB
:1035B00040F480302860F0E7286840F480202860DC
:1035C000286840F480302860E7E7FFF7C7F9801BE0
:1035D000642802D90320BDE8F88F286810F4003F62
:1035E000F3D012E0FFF7BAF90646286810F4003F5E
:1035F0000BD0FFF7B3F9801B642802D90320BDE884
:10360000F88F286810F4003FF3D12078C84F10F0ED
:10361000020F4FF0000856D0C348016811F00C0F9C
:1036200015D0006800F00C00082804D1BF480068DD
:1036300010F4800F0BD0E06878B301203860FFF7FA
:103640008DF90646286810F0020F12D01DE0286898
:1036500010F0020F05D0E068012802D00120BDE87B
:10366000F88F2868216920F0F80040EAC10028603E
:1036700029E0FFF773F9801B022802D90320BDE877
:10368000F88F286810F0020FF3D02868216920F025
:10369000F80040EAC100286015E0FFE7C7F80080A5
:1036A000FFF75CF90646286810F0020F0BD0FFF711
:1036B00055F9801B022802D90320BDE8F88F28683D
:1036C00010F0020FF3D1207810F0080F33D0994892
:1036D000DFF864926169B9B101210160FFF73EF939
:1036E0000646D9F8000010F0020F24D1FFF736F992
:1036F000801B022802D90320BDE8F88FD9F800000A
:1037000010F0020FF2D016E0C0F80080FFF726F9A3
:103710000646D9F8000010F0020F0CD0FFF71EF992
:10372000801B022802D90320BDE8F88FD9F80000D9
:1037300010F0020FF2D1207810F0040F73D04FF088
:103740000009DFF8F8A1DAF8000010F0805F0CD172
:10375000DAF8000040F08050CAF80000DAF8000003
:1037600000F0805000904FF00109DFF8D4B1DBF891
:10377000000010F4807F1AD1DBF8000040F4807064
:10378000CBF80000FFF7EAF80646DBF8000010F47B
:10379000807F0CD1FFF7E2F8801B022802D90320BA
:1037A000BDE8F88FDBF8000010F4807FF2D0A0684D
:1037B000DFF890B1012818D005281DD0DBF80000F3
:1037C00020F00100CBF80000DBF8000020F004003E
:1037D000CBF80000A06838B3FFF7C0F80646DBF866
:1037E000000010F0020F14D03CE0DBF8000040F0C5
:1037F0000100CBF80000EDE7DBF8000040F004002A
:10380000CBF80000DBF8000040F00100CBF800002E
:10381000E0E7FFF7A3F8811B41F28830814204D929
:103820000320BDE8F88F26E005E0DBF8000010F08B
:10383000020FEED016E0FFF791F80646DBF8000025
:1038400010F0020F0ED0FFF789F8811B41F288308B
:10385000814202D90320BDE8F88FDBF8000010F0A8
:10386000020FF0D1B9F1010F05D1DAF8000020F014
:103870008050CAF80000A069E8B32B49096801F03C
:103880000C0108296BD0022810D0C7F86080FFF720
:1038900065F80446286810F0007F5ED0FFF75EF8F8
:1038A000001B022855D90320BDE8F88FC7F86080B7
:1038B000FFF754F80646286810F0007F0BD0FFF79A
:1038C0004DF8801B022802D90320BDE8F88F286834
:1038D00010F0007FF3D1216AE069A26A0843616AAF
:1038E0004FF0FF33890103EB520241EA02410843E2
:1038F00094F82C1000E030E040EA01610B480160D0
:1039000001203866FFF72AF80446286810F0007F87
:1039100023D1FFF723F8001B022815D90320BDE8A7
:10392000F88F1CE00038024008380240043802409A
:1039300000004742800E474274380240403802403F
:103940000070004070380240286810F0007FE0D01E
:1039500003E0286810F0007FA0D10020DFE70120FD
:10396000DDE770B50446002C02D0607F10B106E0A0
:10397000012070BD00202077204600F04FF8022083
:1039800060772168CA204862216853204862204637
:1039900001F0EAFFFF25042620B120684562667722
:1039A000012070BD2068816821F0400121F4E00110
:1039B00081602068816862686369114322691A43E3
:1039C000114381602168E0680861206801692289EB
:1039D00041EA024101612068C16821F08001C160B3
:1039E0002068806810F0200F08D1204600F022F8EF
:1039F00020B1206845626677012070BD2068016CA7
:103A000021F4802101642068016CA26911430164E2
:103A10002068456201206077002070BD034A01687C
:103A2000914202D10121024A1160704700280040F2
:103A30003C0E474270B504462068C16821F0A001E1
:103A4000C160FEF78BFF05462068C06810F0200FAC
:103A50000CD1FEF783FF401BB0F57A7F01D903201C
:103A600070BD2068C06810F0200FF2D0002070BD3B
:103A700070B50446002C05D00025A56294F85100CD
:103A800010B106E0012070BD84F85050204600F0CF
:103A900031F8022084F851002068016821F04001CB
:103AA0000160A168606822690843E1681143084326
:103AB00061690843218B01F400710843E1690843FF
:103AC000216A0843A16A084321680860A0690421AB
:103AD00001EA1040616A0843216848602068C169B2
:103AE00021F40061C1616565012084F85100002066
:103AF00070BD000010B586B00446142101A8FCF783
:103B0000BEFD4B49206888427ED100BF0020009056
:103B10004848006840F480504649086008460068FC
:103B200000F48050009000BF00BF00BF0020009054
:103B300040481438006840F002003E4914390860DB
:103B40000846006800F00200009000BF00BF00BF00
:103B5000002000900846006840F001000860084618
:103B6000006800F00100009000BF00BF1820019025
:103B7000022002900120039003200490052005906C
:103B800001A92D48FEF7D4FD80200190022002906B
:103B900001200390032004900520059001A92748E7
:103BA000FEF7C6FD2648274908604FF0C060486010
:103BB000002124488160C1604FF4806101610021CF
:103BC00041618161C1614FF4403101620021416274
:103BD000FEF7D8FC08B1FDF7BDFF00BF1948E0644F
:103BE000846300BF16481830174908604FF0C06062
:103BF00048604021144881600021C1604FF4806119
:103C000001610021416100E010E08161C1614FF478
:103C10000031016200214162FEF7B4FC08B1FDF7FA
:103C200099FF00BF0848A064846300BF06B010BDC0
:103C300000300140443802400004024000000240CD
:103C400040640240AC0900200C0A00202DE9F84F26
:103C500004460A9E8A4693461F4601254FF00008F7
:103C600094F8500001280ED0012084F85000FEF78F
:103C700075FE814694F85100616801280ED0B1F5B7
:103C8000827F07D102E00220BDE8F88FA16809B960
:103C9000042803D04FF0020800F0CBB8BAF1000FAF
:103CA0001DD0BBF1000F1AD0380018D094F8510085
:103CB000042802D0052084F8510000206065C4F873
:103CC00038B0E787A787C4F830A0E786A7862064C6
:103CD00060642068016811F0400F03D006E04FF0E7
:103CE0000108A6E0016841F040010160E068B0F51C
:103CF000006F05D06068002848D0012F46D07EE0D4
:103D0000606808B1012F3AD1206B21680088C86033
:103D1000206B801C2063E08E401EE0862FE0206830
:103D2000816811F0020F0DD0E18E59B1012D09D13A
:103D3000216B0988C160206B801C2063E08E401ECF
:103D4000E08600252068816811F0010F0BD0E18F1B
:103D500049B1C068A16B0880A06B801CA063E08F94
:103D6000401EE0870125FEF7F9FDA0EB0900B042F7
:103D700005D3B6F1FF3F02D04FF0030859E0E08EC3
:103D80000028CCD1E08F0028C9D13EE0206B21680B
:103D900000780873206B401C2063E08E401EE08694
:103DA0002DE02068816811F0020F0DD0E18E59B12D
:103DB000012D09D1216B09780173206B401C206310
:103DC000E08E401EE08600252068816811F0010F1A
:103DD0000BD0E18F49B1C068A16B0870A06B401C8B
:103DE000A063E08F401EE0870125FEF7B7FDA0EB42
:103DF0000900B04202D3B6F1FF3F11D186B1E08E87
:103E00000028CED1E08F0028CBD14A46314620464B
:103E100004F02AFA38B14FF001082020606508E06C
:103E20004FF0030805E0A06818B92068C1688068F1
:103E30000090012084F85100002084F85000404692
:103E4000BDE8F88F401EB0F1807F01D3012070479C
:103E50004FF0E0214861044AF02010700020886192
:103E6000072008610020704723ED00E090F83C2017
:103E7000012A2CD0012280F83C20CA680023D1F806
:103E800008C022F4407242EA0C02D1F804C022F4C5
:103E9000806242EA0C02D1F800C022F4006242EAD9
:103EA0000C02D1F810C022F4805242EA0C02D1F880
:103EB00014C022F4005242EA0C02C96922F4804282
:103EC00011430268516480F83C30002070470220A2
:103ED000704730B490F83C20012A1ED0012480F8AD
:103EE0003C40022280F83D200268D2F804C093686A
:103EF0002CF0700C0D6845EA0C0C23F08003496827
:103F00001943C2F804C00268916080F83D40002166
:103F100080F83C1030BC0020704730BC0220704755
:103F200010B50446002C03D094F83D0010B107E012
:103F3000012010BD002084F83C00204600F00CF861
:103F4000022084F83D00211D206804F0B9FA012008
:103F500084F83D00002010BD08B53F4A0168914239
:103F60000FD100BF002100913C49096841F00101D7
:103F70003A4A11601146096801F00101009100BF41
:103F800069E0374A0168914211D100BF00210091D8
:103F90003249091F096841F00201304A121F1160BD
:103FA0001146096801F00201009100BF53E02D4A5B
:103FB0000168914211D100BF002100912749091FDA
:103FC000096841F00401254A121F11601146096871
:103FD00001F00401009100BF3DE0234A01689142D5
:103FE00011D100BF002100911C49091F096841F04F
:103FF00008011A4A121F11601146096801F00801F0
:10400000009100BF27E0194A016891420FD100BF1B
:10401000002100911149096841F002010F4A116025
:104020001146096801F00201009100BF13E0104A37
:10403000016891420FD100BF002100910749096832
:1040400041F40031054A11601146096801F400315C
:10405000009100BF00BF08BD00000140443802408D
:104060000004004000080040000C00400004014033
:1040700000440140022180F83D1001688A6802F086
:104080000702062A03D00A6842F001020A600121F1
:1040900080F83D100020704770B5044694F83C004D
:1040A000012818D0012584F83C50022084F83D00F6
:1040B0002068826822F0770222F47F4282600868DA
:1040C000502832D00EDC20284DD006DC00284AD003
:1040D00010284DD147E0022070BD302843D0402841
:1040E00046D136E060282AD0702806D0B0F5805F2F
:1040F0003ED0B0F5005F3BD10BE0CB684A688968E1
:10410000206804F052FA2068816841F077018160EC
:104110002EE0CB684A688968206804F046FA206877
:10412000816841F48041816022E0CA684968206862
:1041300004F02AFB5021206804F042FA18E0CA6813
:104140004968206804F033FB6021206804F038FAE5
:104150000EE0CA684968206804F016FB4021206818
:1041600004F02EFA04E022680146104604F028FA12
:1041700084F83D50002084F83C0070BD10B586B036
:104180000446142101A8FCF77AFA6949206888429C
:104190001ED100BF002000906648006840F010006B
:1041A000644908600846006800F01000009000BFF5
:1041B00000BF4FF420600190022002900020039085
:1041C00004900120059001A95B48FEF7B1FAADE02B
:1041D0005A492068884224D100BF002000905548E9
:1041E000006840F00400534908600846006800F089
:1041F0000400009000BF00BF8815019002200290CB
:104200000120039002200490059001A94C48FEF77C
:104210008FFA4C48FFF72EFF08214A4800F031F989
:1042200084E049492068884225D100BF00200090E1
:104230004048006840F008003E49086008460068B1
:1042400000F00800009000BF00BF4FF480400190D4
:10425000022002900120039002200490059001A901
:104260003A48FEF765FA3A48FFF704FF0821384854
:1042700000F007F95AE03749206888422DD100BF85
:10428000002000902B48006840F080002949086019
:104290000846006800F08000009000BF00BF4FF4A7
:1042A000E05001900220029001200390022004902F
:1042B000059001A92848FEF73BFA2848FFF7DAFEE7
:1042C0000021264800F0DDF80421244800F0D9F848
:1042D0000821224800F0D5F828E0214920688842CA
:1042E00024D100BF002000901248006840F0200058
:1042F000104908600846006800F02000009000BFE8
:1043000000BF402001900220029001200390022073
:1043100004900320059001A91248FEF709FA1248FB
:10432000FFF7A8FE0021104800F0ABF806B010BD62
:1043300000000140303802400010024000040040FC
:1043400000080240AC0A002000080040000C0240B7
:10435000EC0A0020000C0040001C02402C0B002046
:104360000044014000140240AC0B002070B504462C
:104370000D4694F83C0001280DD0012684F83C60DD
:10438000022084F83D0042B1042A1AD0082A2DD018
:104390000C2A53D13EE0022070BD2946206804F06B
:1043A00017F92068816941F00801816120688169FD
:1043B00021F004018161206881692A6911438161CA
:1043C0003CE02946206804F03BF92068816941F40B
:1043D000006181612068816921F4806181612068C8
:1043E00081692A6941EA0221816127E02946206822
:1043F00004F062F92068C16941F00801C1612068D8
:10440000C16921F00401C1612068C1692A691143B1
:10441000C16113E02946206804F08AF92068C16967
:1044200041F40061C1612068C16921F48061C1610A
:104430002068C1692A6941EA0221C16184F83D60AE
:10444000002084F83C0070BD10B50446002C03D059
:1044500094F83D0010B107E0012010BD002084F861
:104460003C00204600F00CF8022084F83D00211D9D
:10447000206804F025F8012084F83D00002010BDDC
:10448000704710B504460122206804F07FF82168C7
:10449000A1F18040B0F5803004D0A1F18040B0F5AA
:1044A000823003D1486C40F4004048642068816841
:1044B00001F00701062903D0016841F00101016004
:1044C000002010BD70B50446002C04D094F83900CB
:1044D000002510B106E0012070BD84F83850204658
:1044E00000F022F8242084F839002068C16821F403
:1044F0000051C160204604F06DF92068016921F483
:10450000904101612068416921F02A0141612068E0
:10451000C16841F40051C160E563202084F839008E
:1045200084F83A00002070BD10B586B0044614210E
:1045300001A8FCF7A4F82F492068884258D100BF91
:10454000002000902C48006840F480202A49086030
:104550000846006800F48020009000BF00BF00BF44
:104560000020009024481038006840F004002249E0
:10457000103908600846006800F00400009000BF91
:1045800000BF4FF440600190022002900120039090
:10459000032004900720059001A91848FEF7C8F8E9
:1045A0001748184908604FF000604860002115481E
:1045B0008160C1604FF480610161002141618161CE
:1045C000C1614FF40031016200214162FDF7DAFF61
:1045D00008B1FDF7BFFA00BF0A486063846300BFFB
:1045E000002204212720FEF785FD2720FEF774FD19
:1045F00006B010BD004800404038024000080240AC
:10460000286002402C0C002000BFFEE701684A69C8
:1046100012F4806F11D06FF480624A61002101634F
:10462000202280F83D2080F83E10026C42F0040207
:10463000026480F83C1001207047002070470000A1
:104640002DE9F84F0446DDF828A00B9D0F46904653
:1046500099462068016841F4806101602068016822
:1046600041F480710160534600224FF00111204651
:10467000009500F00DF910B10120BDE8F88F216818
:1046800007F0FE000861DFF8E8B02B4652465946B5
:10469000204600F057F910B10120BDE8F88F2068DE
:1046A0004169806900902A465146204600F0EFF9A2
:1046B00050B1206C042804D12068016841F40071D5
:1046C00001600120BDE8F88F08F0FF06B9F1010F85
:1046D0000DD021684FEA182008612A46514620462D
:1046E00000F0D5F970B1206C042803D007E02068F1
:1046F000066109E02068016841F400710160012051
:10470000BDE8F88F206806612A465146204600F031
:10471000BEF950B1206C042804D12068016841F42E
:10472000007101600120BDE8F88F2068016841F444
:1047300080710160534600224FF001112046009520
:1047400000F0A6F810B10120BDE8F88F2168F8B29A
:1047500040F0010008612B4652465946204600F0C1
:10476000F1F810B10120BDE8F88F0020BDE8F88F06
:10477000020001002DE9F8430446DDF82090099F6E
:104780000D46164698462068016841F48071016024
:104790004B4600224FF001112046009700F078F8B8
:1047A00010B10120BDE8F883216805F0FE00086122
:1047B0003B464A461E49204600F0C4F810B101208D
:1047C000BDE8F88320684169806900903A4649460F
:1047D000204600F05CF950B1206C042804D1206818
:1047E000016841F4007101600120BDE8F883F5B271
:1047F000B8F1010F0CD02168300A08613A464946E9
:10480000204600F044F970B1206C042803D007E082
:104810002068056109E02068016841F400710160C9
:104820000120BDE8F883206805610020BDE8F88319
:104830000200010070B504460D4616462068406926
:1048400010F0040F13D12046FFF7E0FE08B101205D
:1048500070BDB5F1FF3F05D0FEF780F8801BA84280
:1048600007D835B12068406910F0040FEBD0002064
:1048700070BD00202063202184F83D1084F83E00A4
:10488000216C41F02001216484F83C00012070BDBE
:104890002DE9F0470446DDF820900D4617461E46E8
:1048A000C5F307482068B8F1010F22D0806925EAD6
:1048B00000000004000C26D00020B84216D1B6F14A
:1048C000FF3F06D0FEF74AF8A0EB0900B0421CD823
:1048D000DEB1B8F1010F28D02068806925EA000018
:1048E0000004000C2CD00020B842E8D00020BDE825
:1048F000F087406925EA00000004000C01D0002088
:10490000DBE70120D9E70120D7E700202063202141
:1049100084F83D1084F83E00216C41F020012164B0
:1049200084F83C000120BDE8F0872068406925EA52
:1049300000000004000C01D00020D5E70120D3E7DF
:104940000120D1E72DE9F04704460D4616461F46E3
:10495000C5F307482068B8F1010F26D0806925EA21
:1049600000000004000C3AD04FF000094FF0200A7C
:104970002068406910F4806F1ED02068016841F4FF
:104980000071016021686FF480604861C4F8309064
:1049900084F83DA084F83E90206C40F00400206430
:1049A00084F83C900120BDE8F087406925EA0000CA
:1049B0000004000C13D0D7E7B6F1FF3F05D0FDF798
:1049C000CDFFC01BB0420DD866B1B8F1010F18D0B1
:1049D0002068806925EA00000004000CC8D100208E
:1049E000BDE8F087C4F8309084F83DA084F83E908C
:1049F000206C40F02000206484F83C900120BDE849
:104A0000F0872068406925EA00000004000CAFD15F
:104A1000E5E72DE9F04104460D4616462068406959
:104A200010F0400F22D100274FF020082068406985
:104A300010F0100F0FD021686FF01000486127634D
:104A400084F83D8084F83E70206C206484F83C70CB
:104A50000120BDE8F081FDF781FF801BA84208D846
:104A60003DB12068406910F0400FDFD00020BDE864
:104A7000F081276384F83D8084F83E70206C40F01C
:104A80002000206484F83C700120BDE8F08170B5FE
:104A900004460D4616462068406910F0800F13D179
:104AA0002046FFF7B3FD08B1012070BDB5F1FF3F0F
:104AB00005D0FDF753FF801BA84207D835B1206809
:104AC000406910F0800FEBD0002070BD0020206303
:104AD000202184F83D1084F83E00216C41F0200133
:104AE000216484F83C00012070BD000008B5072057
:104AF00006F09CFC02E0642006F098FCFCF7EEF95E
:104B00000028F8D102E0642006F090FC06F092FA4A
:104B10000028F8D19B4AA2F10C01101DFCF7F8F90E
:104B20009948984B103B994A99490090994806F04A
:104B300099F8DFED990A9FED990A994A0021994861
:104B400000F094FE914A92499748FBF709FF90487C
:104B500090ED000A954880ED000A954880ED000A26
:104B6000944880ED000A8A4890ED010A8F4880ED54
:104B7000010A8F4880ED010A8E4880ED010A8448C1
:104B800090ED020A894880ED020A894880ED020A08
:104B9000884880ED020A002006F084FC044608F0F4
:104BA000C1F88549086010218448C161FEF760FFA3
:104BB00008B1FCF7CFFF08228149824803F094FA3C
:104BC000012081490870DBE000BF4FF0FF31012078
:104BD00007F020FA0128F8D17C48007800F00400A2
:104BE00058B17A48007820F0040078490870654987
:104BF000091D7348401CFCF73DF97548007800F02A
:104C0000040060B17248007820F004007049087018
:104C10005C4A1032A2F11C016E48FCF7D5F86E48D0
:104C2000007800F0040088B16B48007820F00400A0
:104C30006949087053496948FCF758FA51481038D7
:104C4000D0ED040AB0EE600A06F05CF94E484D4B18
:104C5000103B4E4A4E4900904E4806F003F8544827
:104C600090ED000A534880ED000A504890ED000A8C
:104C70004F4880ED000A90ED000A5948D0ED000A37
:104C800020EE200A4B48D0ED000A554890ED011A5D
:104C900000EE810A3E48D0ED000A514890ED021A1C
:104CA00000EE810A414880ED000A414890ED010A7A
:104CB000404880ED010A3D4890ED010A3C4880EDF6
:104CC000010A90ED010A4648D0ED000A20EE200AC4
:104CD0003848D0ED010A424890ED011A00EE810AF1
:104CE0002B48D0ED010A3E4890ED021A00EE810AF1
:104CF0002E4880ED010A2E4890ED020A2D4880EDE5
:104D0000020A2A4890ED020A294880ED020A90ED35
:104D1000020A3348D0ED000A20EE200A2548D0EDE3
:104D2000020A2F4890ED011A00EE810A1848D0EDD2
:104D3000020A2B4890ED021A00EE810A1B4880ED12
:104D4000020A124B024613499FED260A1648FBF74A
:104D500073FF254B1A1F111F134805F0BFFE234890
:104D6000007800F001002149087048B10846007839
:104D700020F0010008700846007840F0020008703A
:104D800022E7000060100020A41000205011002035
:104D900044110020381100200080894500A08C4576
:104DA00048E40008CC1000205C1100202C110020E9
:104DB000201100201411002064000020540900205C
:104DC00068000020700000208D0000208900002075
:104DD0008A000020461000208B0000208300002065
:104DE00054E400086F12833A741100208C000020F4
:104DF00010B50E480E4908600320486000210C4899
:104E00008160C1604FF4102101614FF400114161D4
:104E10000021017641768176C17601774177FDF7F1
:104E200094F908B1FCF796FE10BD00000064004044
:104E30009008002010B50E480E4908600320486015
:104E400000210C488160C1604FF4102101614FF4D2
:104E5000001141610021017641768176C1760177AA
:104E60004177FDF772F908B1FCF774FE10BD000040
:104E700000680040B808002008B500BF002000907E
:104E80001A48006840F48000184908600846006825
:104E900000F48000009000BF00BF00BF0020009021
:104EA0000846006840F4001008600846006800F4F6
:104EB0000010009000BF00BF002205210C20FEF76B
:104EC00019F90C20FEF708F9002205213A20FEF717
:104ED00011F93A20FEF700F9002205213B20FEF7E8
:104EE00009F93B20FEF7F8F808BD00003038024011
:104EF00000B5ABB01C22244924A8FBF786FB002197
:104F000024A806F0A0FA214908601C221E491C3181
:104F10001DA8FBF77AFB00211DA806F094FA1C4996
:104F200008601C221849383116A8FBF76EFB0021D7
:104F300016A806F088FA174908601C221249543155
:104F40000FA8FBF762FB00210FA806F07CFA1249BC
:104F500008601C220C49703108A8FBF756FB0021A1
:104F600008A806F070FA0D4908601C2206498C3129
:104F700001A8FBF74AFB002101A806F064FA0849E2
:104F800008602BB000BD000044E3000814000020BE
:104F90000000002004000020080000200C00002079
:104FA0001000002000B587B0142102A8FBF767FBB2
:104FB00000BF002001907648006840F0020074496C
:104FC00008600846006800F00200019000BF00BFC2
:104FD00000BF002001900846006840F00100086012
:104FE0000846006800F00100019000BF00BF00BF4C
:104FF000002001900846006840F00800086008465C
:10500000006800F00800019000BF00BF00BF002052
:1050100001900846006840F00400086008460068F7
:1050200000F00400019000BF00BF00BF002001900D
:105030000846006840F0800008600846006800F0FC
:105040008000019000BF00BF00BF00200190084613
:10505000006840F0400008600846006800F040002A
:10506000019000BF00BF00BF00200190084600680B
:1050700040F0200008600846006800F02000019021
:1050800000BF00BF00BF002001900846006840F04C
:10509000100008600846006800F01000019000BF92
:1050A00000BF012240213B48FDF750FC01221021A6
:1050B0003948FDF74BFC00224FF400513748FDF70B
:1050C00045FC012211463648FDF740FC4020029085
:1050D000012003900490059002A92E48FDF728FBBB
:1050E000092002902F4803900120049002A929482A
:1050F000FDF71EFB10200290012003900490022077
:10510000059002A92448FDF713FB302002902548A2
:1051100003900120049002A92348FDF709FB4FF4F6
:10512000005002900120039004900220059002A9F3
:105130001A48FDF7FDFA0120029003900490022026
:10514000059002A91648FDF7F3FA00220621084649
:10515000FDF7D0FF0620FDF7BFFF00220521092043
:10516000FDF7C8FF0920FDF7B7FF002205210A203F
:10517000FDF7C0FF0A20FDF7AFFF00220521172031
:10518000FDF7B8FF1720FDF7A7FF07B000BD00002F
:105190003038024000180240000002400010024077
:1051A00000040240000021100008024010B50B4826
:1051B0000B4908600B484860002109488160C160C4
:1051C0004FF480410161002141618161C16101624F
:1051D000FDF7CAFB08B1FCF7BDFC10BD005C004048
:1051E000E0080020801A060010B50A480A49086045
:1051F000002048607C210848816040F67F41C16002
:105200000021016141618161FEF7ABFB08B1FCF750
:10521000A1FC10BD002800403409002010B50F4843
:105220000F4908604FF48270486000210C4881608B
:10523000C16002210161012141614902816138217E
:10524000C16100210162416281620A21C162FEF7EF
:105250000FFC08B1FCF77EFC10BD000000300140DF
:105260005409002000B587B01C216846FBF707FAF7
:1052700015481649086000204860002113488160E5
:1052800041F28731C160002101618161FEF748FE72
:1052900008B1FCF75FFC0D48FFF7D6F808B1FCF742
:1052A00059FC6020009000200190029004900022A0
:1052B00069460648FFF75AF808B1FCF74BFC03486B
:1052C000FEF75CFF07B000BD00440140AC0B0020BE
:1052D00000B595B0002011901290139014900F908B
:1052E00010901C2108A8FBF7CAF920216846FBF79B
:1052F000C6F9304830490860A720486000212E4890
:10530000816044F61F61C1600021016141618161DA
:10531000FEF706FE08B1FCF71DFC4FF4805011901B
:1053200011A92548FEF7B8FE08B1FCF713FC224886
:10533000FFF78AF808B1FCF70DFC00200F901090E1
:105340000FA91D48FEF7C5FD08B1FCF703FC60205E
:1053500008904FF4FA60099000200A900B900C908E
:105360000D900E90002208A91348FEF7FFFF08B128
:10537000FCF7F0FB042208A90F48FEF7F7FF08B17D
:10538000FCF7E8FB0020009001900290039004904D
:105390004FF4005005900020079069460648FEF73C
:1053A00065FD08B1FCF7D6FB0348FEF7E7FE15B034
:1053B00000BD0000000001406C0A002000B58DB067
:1053C000002009900A900B900C90079008901C21E7
:1053D0006846FBF754F920482049086000204860DF
:1053E00000211E48816042F2CF01C16000210161AD
:1053F0008161FEF795FD08B1FCF7ACFB4FF48050DE
:10540000099009A91548FEF747FE08B1FCF7A2FB71
:105410001248FFF719F808B1FCF79CFB0020079031
:10542000089007A90D48FEF754FD08B1FCF792FB60
:1054300060200090002001900290049008226946AC
:105440000648FEF793FF08B1FCF784FB0348FEF71C
:1054500095FE0DB000BD000000040040AC0A002025
:1054600000B58DB0002009900A900B900C90079029
:1054700008901C216846FBF702F920482049086083
:10548000A720486000211E4881604FF6FF71C1606F
:10549000002101618161FEF743FD08B1FCF75AFB71
:1054A0004FF48050099009A91548FEF7F5FD08B1A1
:1054B000FCF750FB1248FEF7C7FF08B1FCF74AFBA8
:1054C00000200790089007A90D48FEF702FD08B1DB
:1054D000FCF740FB602000900020019002900490B7
:1054E000082269460648FEF741FF08B1FCF732FB87
:1054F0000348FEF743FE0DB000BD00000008004069
:10550000EC0A002000B58DB0002009900A900B90A5
:105510000C90079008901C216846FBF7B0F82848CB
:1055200028490860002048600021264881604FF625
:10553000FF71C160002101618161FEF7F1FC08B1DA
:10554000FCF708FB4FF48050099009A91D48FEF7AD
:10555000A3FD08B1FCF7FEFA1A48FEF775FF08B183
:10556000FCF7F8FA00200790089007A91548FEF705
:10557000B0FC08B1FCF7EEFA60200090002001902A
:1055800002900490002269460E48FEF7EFFE08B133
:10559000FCF7E0FA042269460A48FEF7E7FE08B184
:1055A000FCF7D8FA082269460648FEF7DFFE08B184
:1055B000FCF7D0FA0348FEF7E1FD0DB000BD000096
:1055C000000C00402C0B002000B587B00020039099
:1055D00004900590069001900290154815490860C6
:1055E000A720486000211348816044F61F61C16014
:1055F0000021016141618161FEF792FC08B1FCF775
:10560000A9FA4FF48050039003A90A48FEF744FD1D
:1056100008B1FCF79FFA00200190029001A905480B
:10562000FEF757FC08B1FCF795FA07B000BD000083
:10563000000401406C0B002010B50B480B490860BA
:105640000B484860002109488160C1604FF48061C7
:1056500001610C21416100218161C161FEF732FFCE
:1056600008B1FCF777FA10BD00480040EC0B0020B1
:10567000A086010000BFFEE770470000B0EE401AB0
:1056800010B99FED790A704790ED100A80ED110A6C
:1056900090ED0F0A80ED100AC0ED060A80ED071AA2
:1056A00030EEC10A80ED0F0A0178002975D190ED26
:1056B000010AD0ED0F1A20EE210A80ED090A90EDC3
:1056C0000A0AD0ED021A90ED0F2A01EE820A80ED4F
:1056D0000A0A90ED0D0A80ED0E0A90ED0C0A80ED9D
:1056E0000D0A90ED0F0AD0ED101A30EE610A80ED30
:1056F0000C0A90ED030AD0ED0C1A20EE210A80ED81
:105700000B0A90ED0A0AD0ED051AB4EEE10AF1EEAB
:1057100010FA04DD90ED050A80ED0A0A10E090ED24
:105720000A0AD0ED051AF1EE611AB4EEE10AF1EEC3
:1057300010FA05D290ED050AB1EE400A80ED0A0A92
:1057400090ED090AD0ED0A1A30EE210AD0ED0B1ABD
:1057500030EE210A80ED080A90ED080AD0ED041A17
:10576000B4EEE10AF1EE10FA04DD90ED040A80EDEA
:10577000080A76E090ED080AD0ED041AF1EE611AFD
:10578000B4EEE10AF1EE10FA6BD290ED040AB1EE3C
:10579000400A80ED080A64E0FFE70178012960D142
:1057A00090ED0F0AD0ED101A30EE610AD0ED011A1B
:1057B00020EE210A80ED090A90ED020AD0ED0F1AC1
:1057C00020EE210A80ED0A0A90ED0D0A80ED0E0A06
:1057D00090ED0C0A80ED0D0A90ED0F0AD0ED101A35
:1057E000B0EE002A02EE610AD0ED111A30EE210A65
:1057F00080ED0C0A90ED030AD0ED0C1A20EE210A80
:1058000080ED0B0A90ED090AD0ED0A1A30EE210A5C
:10581000D0ED0B1A30EE210AD0ED081A30EE210A35
:1058200080ED080A90ED080AD0ED041AB4EEE10A02
:10583000F1EE10FA04DD90ED040A80ED080A10E0A4
:1058400090ED080AD0ED041AF1EE611AB4EEE10A07
:10585000F1EE10FA05D290ED040AB1EE400A80EDA7
:10586000080A90ED080A0EE70000000000B102B936
:105870007047017092ED001A80ED011A92ED011A45
:1058800080ED021A92ED021A80ED031A80ED040AEF
:10589000C0ED050A9FED0C1A80ED0E1A80ED0D1A71
:1058A00080ED0C1A9FED081A80ED081A80ED0B1A96
:1058B00080ED0A1A80ED091A80ED111A80ED101A98
:1058C00080ED0F1A00BFD3E70000000010B5234B96
:1058D0001B685B6943F04003204C246863611F4BE5
:1058E0001B68DB6843F010031C4C2468E3601C4B0E
:1058F0001B681B6823F00103194C2468236007E030
:10590000174B1B681B6823F00103154C24682360A8
:10591000134B1B681B6803F00103002BF0D1114BE4
:105920000F4C2468A3600E4B1B68D8600C4B1B689F
:1059300019610B4B1B685A60094B1B681B6843F4C9
:105940008023074C24682360054B1B681B6843F0C9
:105950000103034C2468236010BD0000EC0B002001
:105960002C0C00200448004070B504462068C16833
:1059700011F0400F17D14FF0FF31C160FCF7EEFF7F
:1059800005462068C06810F0400F0CD1FCF7E6FF18
:10599000401BB0F57A7F01D9032070BD2068C06834
:1059A00010F0400FF2D0002070BD000010B5FB4B8E
:1059B0001B681B6823F00103F84C24682360F84B34
:1059C0001B681B6823F00103F54C2468236007E083
:1059D000F24B1B681B6823F00103F04C2468236022
:1059E000EE4B1B681B6803F00103002BF0D107E0AE
:1059F000EB4B1B681B6823F00103E94C2468236010
:105A0000E74B1B681B6803F00103002BF0D1E54B4B
:105A1000DB6C1B68E44CA34275D9E24BDB6C1B6862
:105A2000E24CA34201D1202368E0DE4BDB6C1B6813
:105A3000DD4C483CA34201D120235FE0D94BDB6C15
:105A40001B68DA4C6034A34201D1202356E0D54BC9
:105A5000DB6C1B68D44C1834A34201D120234DE0E9
:105A6000D04BDB6C1B68D14C1834A34201D1DB1442
:105A700044E0CC4BDB6C1B68CB4C303CA34201D1E7
:105A8000DB143BE0C74BDB6C1B68C84C7834A3428B
:105A900001D1DB1432E0C34BDB6C1B68C24C3034E9
:105AA000A34201D1DB1429E0BE4BDB6C1B68BF4C69
:105AB0003034A34202D14FF400131FE0B94BDB6C2A
:105AC0001B68B94C183CA34202D14FF4001315E0F7
:105AD000B44BDB6C1B68B54C9034A34202D14FF43D
